{
  "contractName": "Validator",
  "abi": [
    {
      "constant": true,
      "inputs": [],
      "name": "owner",
      "outputs": [
        {
          "name": "",
          "type": "address"
        }
      ],
      "payable": false,
      "stateMutability": "view",
      "type": "function"
    },
    {
      "inputs": [],
      "payable": false,
      "stateMutability": "nonpayable",
      "type": "constructor"
    },
    {
      "anonymous": false,
      "inputs": [
        {
          "indexed": false,
          "name": "_addr",
          "type": "address"
        },
        {
          "indexed": false,
          "name": "_time",
          "type": "uint256"
        },
        {
          "indexed": false,
          "name": "_hash",
          "type": "uint256"
        }
      ],
      "name": "hashSaved",
      "type": "event"
    },
    {
      "constant": false,
      "inputs": [
        {
          "name": "_addr",
          "type": "address"
        }
      ],
      "name": "registerAddress",
      "outputs": [],
      "payable": false,
      "stateMutability": "nonpayable",
      "type": "function"
    },
    {
      "constant": false,
      "inputs": [
        {
          "name": "_addr",
          "type": "address"
        }
      ],
      "name": "deleteAddress",
      "outputs": [],
      "payable": false,
      "stateMutability": "nonpayable",
      "type": "function"
    },
    {
      "constant": true,
      "inputs": [
        {
          "name": "_addr",
          "type": "address"
        }
      ],
      "name": "checkRegistered",
      "outputs": [
        {
          "name": "",
          "type": "bool"
        }
      ],
      "payable": false,
      "stateMutability": "view",
      "type": "function"
    },
    {
      "constant": false,
      "inputs": [
        {
          "name": "_addr",
          "type": "address"
        },
        {
          "name": "_recordTime",
          "type": "uint256"
        },
        {
          "name": "_recordHash",
          "type": "uint256"
        }
      ],
      "name": "saveRecord",
      "outputs": [],
      "payable": false,
      "stateMutability": "nonpayable",
      "type": "function"
    },
    {
      "constant": true,
      "inputs": [
        {
          "name": "_addr",
          "type": "address"
        },
        {
          "name": "_recordTime",
          "type": "uint256"
        }
      ],
      "name": "readHash",
      "outputs": [
        {
          "name": "",
          "type": "uint256"
        }
      ],
      "payable": false,
      "stateMutability": "view",
      "type": "function"
    },
    {
      "constant": true,
      "inputs": [
        {
          "name": "_addr",
          "type": "address"
        },
        {
          "name": "_dataTime",
          "type": "uint256"
        },
        {
          "name": "_dataHash",
          "type": "uint256"
        }
      ],
      "name": "validateHash",
      "outputs": [
        {
          "name": "",
          "type": "bool"
        }
      ],
      "payable": false,
      "stateMutability": "view",
      "type": "function"
    },
    {
      "constant": false,
      "inputs": [],
      "name": "consoleLog",
      "outputs": [
        {
          "name": "",
          "type": "uint32"
        }
      ],
      "payable": false,
      "stateMutability": "nonpayable",
      "type": "function"
    }
  ],
  "bytecode": "0x608060405234801561001057600080fd5b50336000806101000a81548173ffffffffffffffffffffffffffffffffffffffff021916908373ffffffffffffffffffffffffffffffffffffffff16021790555060008060146101000a81548163ffffffff021916908363ffffffff160217905550610814806100816000396000f30060806040526004361061008e576000357c0100000000000000000000000000000000000000000000000000000000900463ffffffff1680630274d1cc14610093578063742887ff146100ea5780638da5cb5b1461012d5780639149a67014610184578063a8a54008146101f3578063b3afda8d14610236578063ca6e790614610297578063ee2574af146102ce575b600080fd5b34801561009f57600080fd5b506100e8600480360381019080803573ffffffffffffffffffffffffffffffffffffffff1690602001909291908035906020019092919080359060200190929190505050610329565b005b3480156100f657600080fd5b5061012b600480360381019080803573ffffffffffffffffffffffffffffffffffffffff16906020019092919050505061044e565b005b34801561013957600080fd5b50610142610501565b604051808273ffffffffffffffffffffffffffffffffffffffff1673ffffffffffffffffffffffffffffffffffffffff16815260200191505060405180910390f35b34801561019057600080fd5b506101d9600480360381019080803573ffffffffffffffffffffffffffffffffffffffff1690602001909291908035906020019092919080359060200190929190505050610526565b604051808215151515815260200191505060405180910390f35b3480156101ff57600080fd5b50610234600480360381019080803573ffffffffffffffffffffffffffffffffffffffff1690602001909291905050506105dc565b005b34801561024257600080fd5b50610281600480360381019080803573ffffffffffffffffffffffffffffffffffffffff1690602001909291908035906020019092919050505061068f565b6040518082815260200191505060405180910390f35b3480156102a357600080fd5b506102ac610742565b604051808263ffffffff1663ffffffff16815260200191505060405180910390f35b3480156102da57600080fd5b5061030f600480360381019080803573ffffffffffffffffffffffffffffffffffffffff169060200190929190505050610792565b604051808215151515815260200191505060405180910390f35b600160008473ffffffffffffffffffffffffffffffffffffffff1673ffffffffffffffffffffffffffffffffffffffff16815260200190815260200160002060009054906101000a900460ff16151561038157600080fd5b80600260008573ffffffffffffffffffffffffffffffffffffffff1673ffffffffffffffffffffffffffffffffffffffff1681526020019081526020016000206000848152602001908152602001600020819055507f22a720c0da3fc09a1d228060c8825ddeffb40591bf09b5cbda7a8f83e526e6c6334283604051808473ffffffffffffffffffffffffffffffffffffffff1673ffffffffffffffffffffffffffffffffffffffff168152602001838152602001828152602001935050505060405180910390a1505050565b600160008273ffffffffffffffffffffffffffffffffffffffff1673ffffffffffffffffffffffffffffffffffffffff16815260200190815260200160002060009054906101000a900460ff1615156104a657600080fd5b6000600160008373ffffffffffffffffffffffffffffffffffffffff1673ffffffffffffffffffffffffffffffffffffffff16815260200190815260200160002060006101000a81548160ff02191690831515021790555050565b6000809054906101000a900473ffffffffffffffffffffffffffffffffffffffff1681565b6000600160008573ffffffffffffffffffffffffffffffffffffffff1673ffffffffffffffffffffffffffffffffffffffff16815260200190815260200160002060009054906101000a900460ff16151561058057600080fd5b81600260008673ffffffffffffffffffffffffffffffffffffffff1673ffffffffffffffffffffffffffffffffffffffff1681526020019081526020016000206000858152602001908152602001600020541490509392505050565b600160008273ffffffffffffffffffffffffffffffffffffffff1673ffffffffffffffffffffffffffffffffffffffff16815260200190815260200160002060009054906101000a900460ff1615151561063557600080fd5b60018060008373ffffffffffffffffffffffffffffffffffffffff1673ffffffffffffffffffffffffffffffffffffffff16815260200190815260200160002060006101000a81548160ff02191690831515021790555050565b6000600160008473ffffffffffffffffffffffffffffffffffffffff1673ffffffffffffffffffffffffffffffffffffffff16815260200190815260200160002060009054906101000a900460ff1615156106e957600080fd5b600260008473ffffffffffffffffffffffffffffffffffffffff1673ffffffffffffffffffffffffffffffffffffffff168152602001908152602001600020600083815260200190815260200160002054905092915050565b60006001600060149054906101000a900463ffffffff1601600060146101000a81548163ffffffff021916908363ffffffff160217905550600060149054906101000a900463ffffffff16905090565b6000600160008373ffffffffffffffffffffffffffffffffffffffff1673ffffffffffffffffffffffffffffffffffffffff16815260200190815260200160002060009054906101000a900460ff1690509190505600a165627a7a72305820bd29eac2bb7c9b9a4bba8b7a373e0ecdca014b1f626c3e403d929172f812a1690029",
  "source": "pragma solidity ^0.4.24;\n\t\ncontract Validator {\n\n\taddress public owner;\n\tuint32 i;\n\n\tmapping(address => bool) private sensorRegistry;\n\tmapping(address => mapping(uint256 => uint256)) private videoHash; \n\n  constructor( ) public{\n\t\towner = msg.sender;\n\t\ti = 0;\n\t}\n\n// Register address\n\tfunction registerAddress(address _addr) public {\n\t\trequire(!sensorRegistry[_addr]);\n\n\t\tsensorRegistry[_addr] = true;\n\t}\n\n\tfunction deleteAddress(address _addr) public {\n\t\trequire(sensorRegistry[_addr]);\n\n\t\tsensorRegistry[_addr] = false;\n\t}\n\n\tfunction checkRegistered(address _addr) public constant returns(bool){\n\t\treturn sensorRegistry[_addr];\n\t}\n\n\n// Saving sensor hash values;\n\tevent hashSaved(address _addr, uint256 _time, uint256 _hash); \n\t\n\tfunction saveRecord(address _addr, uint256 _recordTime, uint256 _recordHash) public {\n\t\trequire(sensorRegistry[_addr]);\n\t\tvideoHash[_addr][_recordTime] = _recordHash;\n\n\t\t//sensorStruct({recorder:msg.sender, recordTime:_recordTime, recordHash:_recordHash, flag:1});\n\n\t\temit hashSaved(msg.sender, uint256(block.timestamp), _recordHash);\n\t}\n\n\tfunction readHash(address _addr, uint256 _recordTime) public view returns (uint256){\n\t\trequire(sensorRegistry[_addr]);\n\n\t\treturn videoHash[_addr][_recordTime];\n\t}\n\n\tfunction validateHash(address _addr, uint256 _dataTime, uint256 _dataHash) public view returns (bool){\n\t\trequire(sensorRegistry[_addr]);\n\n\t\t//bytes32 hashed = keccak256(_dataHash);\n\n\t\treturn (videoHash[_addr][_dataTime] == _dataHash);\n\t}\n\n\tfunction consoleLog() public returns (uint32){\n\t\ti = i + 1;\n\t\treturn i;\n\t}\n}\n",
  "sourcePath": "/Users/itaeheon/Truffle/Kisa/contracts/Validator.sol",
  "compiler": {
    "name": "solc",
    "version": "0.4.24+commit.e67f0147.Emscripten.clang"
  },
  "schemaVersion": "2.0.0",
  "updatedAt": "2018-06-02T19:28:08.568Z"
}